{
  "_format": "hh-sol-artifact-1",
  "contractName": "RelayContract",
  "sourceName": "contracts/Ethereum/RelayContract.sol",
  "abi": [
    {
      "anonymous": false,
      "inputs": [
        {
          "indexed": true,
          "internalType": "address",
          "name": "from",
          "type": "address"
        },
        {
          "indexed": true,
          "internalType": "address",
          "name": "to",
          "type": "address"
        },
        {
          "indexed": false,
          "internalType": "uint256",
          "name": "amount",
          "type": "uint256"
        }
      ],
      "name": "AssetTransferred",
      "type": "event"
    },
    {
      "anonymous": false,
      "inputs": [
        {
          "indexed": true,
          "internalType": "address",
          "name": "sender",
          "type": "address"
        },
        {
          "indexed": false,
          "internalType": "bytes",
          "name": "message",
          "type": "bytes"
        }
      ],
      "name": "MessageRelayed",
      "type": "event"
    },
    {
      "inputs": [
        {
          "internalType": "bytes32",
          "name": "",
          "type": "bytes32"
        }
      ],
      "name": "processedMessages",
      "outputs": [
        {
          "internalType": "bool",
          "name": "",
          "type": "bool"
        }
      ],
      "stateMutability": "view",
      "type": "function"
    },
    {
      "inputs": [
        {
          "internalType": "bytes",
          "name": "_data",
          "type": "bytes"
        }
      ],
      "name": "relayMessage",
      "outputs": [],
      "stateMutability": "nonpayable",
      "type": "function"
    },
    {
      "inputs": [
        {
          "internalType": "address",
          "name": "_to",
          "type": "address"
        },
        {
          "internalType": "uint256",
          "name": "_amount",
          "type": "uint256"
        }
      ],
      "name": "transferAsset",
      "outputs": [],
      "stateMutability": "nonpayable",
      "type": "function"
    },
    {
      "inputs": [
        {
          "internalType": "bytes32[]",
          "name": "proof",
          "type": "bytes32[]"
        },
        {
          "internalType": "bytes32",
          "name": "root",
          "type": "bytes32"
        },
        {
          "internalType": "bytes32",
          "name": "leaf",
          "type": "bytes32"
        }
      ],
      "name": "verifyMerkleProof",
      "outputs": [
        {
          "internalType": "bool",
          "name": "",
          "type": "bool"
        }
      ],
      "stateMutability": "pure",
      "type": "function"
    }
  ],
  "bytecode": "0x608060405234801561001057600080fd5b506104e9806100206000396000f3fe608060405234801561001057600080fd5b506004361061004c5760003560e01c80635c921eb91461005157806388ba16ab14610066578063ada4fa181461009d578063d58c736a146100b0575b600080fd5b61006461005f3660046102d5565b6100c3565b005b61008961007436600461030d565b60006020819052908152604090205460ff1681565b604051901515815260200160405180910390f35b6100896100ab366004610326565b610107565b6100646100be3660046103a8565b610152565b6040518181526001600160a01b0383169033907f645e52ee0ce5c05d60f4b051028f29630be7001f5d84cba67fe6872db872cff89060200160405180910390a35050565b60006101498585808060200260200160405190810160405280939291908181526020018383602002808284376000920191909152508792508691506102409050565b95945050505050565b60003383834260405160200161016b949392919061041a565b60408051601f19818403018152918152815160209283012060008181529283905291205490915060ff16156101e65760405162461bcd60e51b815260206004820152601960248201527f4d65737361676520616c72656164792070726f63657373656400000000000000604482015260640160405180910390fd5b60008181526020819052604090819020805460ff191660011790555133907f9e6c52944e331ba6270e7fe4cea2a4086bae8f7a27e1cdba07f416806f5d0ac4906102339086908690610447565b60405180910390a2505050565b60008261024d8584610256565b14949350505050565b600081815b845181101561029b576102878286838151811061027a5761027a610476565b60200260200101516102a3565b9150806102938161048c565b91505061025b565b509392505050565b60008183106102bf5760008281526020849052604090206102ce565b60008381526020839052604090205b9392505050565b600080604083850312156102e857600080fd5b82356001600160a01b03811681146102ff57600080fd5b946020939093013593505050565b60006020828403121561031f57600080fd5b5035919050565b6000806000806060858703121561033c57600080fd5b843567ffffffffffffffff8082111561035457600080fd5b818701915087601f83011261036857600080fd5b81358181111561037757600080fd5b8860208260051b850101111561038c57600080fd5b6020928301999098509187013596604001359550909350505050565b600080602083850312156103bb57600080fd5b823567ffffffffffffffff808211156103d357600080fd5b818501915085601f8301126103e757600080fd5b8135818111156103f657600080fd5b86602082850101111561040857600080fd5b60209290920196919550909350505050565b6bffffffffffffffffffffffff198560601b16815282846014830137601492019182015260340192915050565b60208152816020820152818360408301376000818301604090810191909152601f909201601f19160101919050565b634e487b7160e01b600052603260045260246000fd5b6000600182016104ac57634e487b7160e01b600052601160045260246000fd5b506001019056fea26469706673582212201fd2511b274b9fe0e8c29aa4555de069c812d88b11aef6f99882f2069fb4703464736f6c63430008140033",
  "linkReferences": {},
  "deployedLinkReferences": {}
}